{
  "contractName": "SimpleStorage",
  "abi": [
    {
      "inputs": [
        {
          "internalType": "uint256",
          "name": "x",
          "type": "uint256"
        }
      ],
      "name": "set",
      "outputs": [],
      "stateMutability": "nonpayable",
      "type": "function"
    },
    {
      "inputs": [
        {
          "internalType": "uint256",
          "name": "x",
          "type": "uint256"
        }
      ],
      "name": "add",
      "outputs": [],
      "stateMutability": "nonpayable",
      "type": "function"
    },
    {
      "inputs": [],
      "name": "get",
      "outputs": [
        {
          "internalType": "uint256",
          "name": "",
          "type": "uint256"
        }
      ],
      "stateMutability": "view",
      "type": "function",
      "constant": true
    }
  ],
  "bytecode": "0x608060405234801561001057600080fd5b5061020e806100206000396000f3fe608060405234801561001057600080fd5b50600436106100415760003560e01c80631003e2d21461004657806360fe47b1146100625780636d4ce63c1461007e575b600080fd5b610060600480360381019061005b91906100df565b61009c565b005b61007c600480360381019061007791906100df565b6100b7565b005b6100866100c1565b6040516100939190610117565b60405180910390f35b806000808282546100ad9190610132565b9250508190555050565b8060008190555050565b60008054905090565b6000813590506100d9816101c1565b92915050565b6000602082840312156100f157600080fd5b60006100ff848285016100ca565b91505092915050565b61011181610188565b82525050565b600060208201905061012c6000830184610108565b92915050565b600061013d82610188565b915061014883610188565b9250827fffffffffffffffffffffffffffffffffffffffffffffffffffffffffffffffff0382111561017d5761017c610192565b5b828201905092915050565b6000819050919050565b7f4e487b7100000000000000000000000000000000000000000000000000000000600052601160045260246000fd5b6101ca81610188565b81146101d557600080fd5b5056fea26469706673582212206816fc7c28e4d67af881a6ed86e02b94a9decef849c67232d7925b61990af4de64736f6c63430008000033",
  "immutableReferences": {},
  "source": "// SPDX-License-Identifier: MIT\npragma solidity >=0.4.21 <=0.8.0;\n\ncontract SimpleStorage {\n  uint storedData;\n\n  function set(uint x) public {\n    storedData = x;\n  }\n\n  function add(uint x) public {\n    storedData += x;\n  }\n\n  function get() public view returns (uint) {\n    return storedData;\n  }\n}\n",
  "sourcePath": "/home/johna/src/crypto/twitch/start-solidity/contracts/SimpleStorage.sol",
  "compiler": {
    "name": "solc",
    "version": "0.8.0+commit.c7dfd78e.Emscripten.clang"
  },
  "schemaVersion": "3.4.1",
  "updatedAt": "2021-09-01T13:55:22.195Z",
  "networkType": "ethereum",
  "devdoc": {
    "kind": "dev",
    "methods": {},
    "version": 1
  },
  "userdoc": {
    "kind": "user",
    "methods": {},
    "version": 1
  }
}