{
  "contractName": "SimpleStorage",
  "abi": [
    {
      "inputs": [
        {
          "internalType": "address",
          "name": "_owner",
          "type": "address"
        }
      ],
      "stateMutability": "nonpayable",
      "type": "constructor"
    },
    {
      "inputs": [],
      "name": "owner",
      "outputs": [
        {
          "internalType": "address",
          "name": "",
          "type": "address"
        }
      ],
      "stateMutability": "view",
      "type": "function",
      "constant": true
    },
    {
      "inputs": [
        {
          "internalType": "uint256",
          "name": "x",
          "type": "uint256"
        }
      ],
      "name": "set",
      "outputs": [],
      "stateMutability": "nonpayable",
      "type": "function"
    },
    {
      "inputs": [
        {
          "internalType": "uint256",
          "name": "x",
          "type": "uint256"
        }
      ],
      "name": "add",
      "outputs": [],
      "stateMutability": "nonpayable",
      "type": "function"
    },
    {
      "inputs": [],
      "name": "get",
      "outputs": [
        {
          "internalType": "uint256",
          "name": "",
          "type": "uint256"
        }
      ],
      "stateMutability": "view",
      "type": "function",
      "constant": true
    }
  ],
  "bytecode": "0x608060405234801561001057600080fd5b506040516103c73803806103c78339818101604052810190610032919061008d565b806000806101000a81548173ffffffffffffffffffffffffffffffffffffffff021916908373ffffffffffffffffffffffffffffffffffffffff160217905550506100ff565b600081519050610087816100e8565b92915050565b60006020828403121561009f57600080fd5b60006100ad84828501610078565b91505092915050565b60006100c1826100c8565b9050919050565b600073ffffffffffffffffffffffffffffffffffffffff82169050919050565b6100f1816100b6565b81146100fc57600080fd5b50565b6102b98061010e6000396000f3fe608060405234801561001057600080fd5b506004361061004c5760003560e01c80631003e2d21461005157806360fe47b11461006d5780636d4ce63c146100895780638da5cb5b146100a7575b600080fd5b61006b6004803603810190610066919061012e565b6100c5565b005b6100876004803603810190610082919061012e565b6100e1565b005b6100916100eb565b60405161009e9190610190565b60405180910390f35b6100af6100f5565b6040516100bc9190610175565b60405180910390f35b80600160008282546100d791906101ab565b9250508190555050565b8060018190555050565b6000600154905090565b60008054906101000a900473ffffffffffffffffffffffffffffffffffffffff1681565b6000813590506101288161026c565b92915050565b60006020828403121561014057600080fd5b600061014e84828501610119565b91505092915050565b61016081610201565b82525050565b61016f81610233565b82525050565b600060208201905061018a6000830184610157565b92915050565b60006020820190506101a56000830184610166565b92915050565b60006101b682610233565b91506101c183610233565b9250827fffffffffffffffffffffffffffffffffffffffffffffffffffffffffffffffff038211156101f6576101f561023d565b5b828201905092915050565b600061020c82610213565b9050919050565b600073ffffffffffffffffffffffffffffffffffffffff82169050919050565b6000819050919050565b7f4e487b7100000000000000000000000000000000000000000000000000000000600052601160045260246000fd5b61027581610233565b811461028057600080fd5b5056fea26469706673582212207d2784953e022fb72e5ed0e4fa7020b2e905c35eb676dd7ac0d0fd01fbe81de964736f6c63430008000033",
  "immutableReferences": {},
  "source": "// SPDX-License-Identifier: MIT\npragma solidity >=0.4.21 <=0.8.0;\n\ncontract SimpleStorage {\n  address public owner;\n  uint storedData;\n\n  constructor (address _owner) {\n    owner = _owner;\n  }\n\n  function set(uint x) public {\n    storedData = x;\n  }\n\n  function add(uint x) public {\n    storedData += x;\n  }\n\n  function get() public view returns (uint) {\n    return storedData;\n  }\n}\n",
  "sourcePath": "/home/johna/src/crypto/twitch/start-solidity/contracts/SimpleStorage.sol",
  "compiler": {
    "name": "solc",
    "version": "0.8.0+commit.c7dfd78e.Emscripten.clang"
  },
  "schemaVersion": "3.4.1",
  "updatedAt": "2021-09-02T14:27:31.266Z",
  "networkType": "ethereum",
  "devdoc": {
    "kind": "dev",
    "methods": {},
    "version": 1
  },
  "userdoc": {
    "kind": "user",
    "methods": {},
    "version": 1
  }
}